:100000000C9453000C9470000C9470000C947000CD
:100010000C9470000C9470000C9470000C947000A0
:100020000C9470000C9470000C9470000C94700090
:100030000C9470000C9470000C9470000C94700080
:100040000C9497000C9470000C9470000C94700049
:100050000C9470000C9470000C9470000C94700060
:100060000C9470000C947000000000002500280023
:100070002B0000000000240027002A0004040404D0
:100080000404040402020202020203030303030342
:10009000010204081020408001020408102001021F
:1000A00004081020980111241FBECFEFD8E0DEBF56
:1000B000CDBF21E0A0E0B1E001C01D92A331B207A5
:1000C000E1F710E0C3E5D0E004C02197FE010E94F3
:1000D000A901C235D107C9F70E94E1000C94AF0114
:1000E0000C9400003FB7F89480910F01909110019B
:1000F000A0911101B091120126B5A89B05C02F3F18
:1001000019F00196A11DB11D3FBFBA2FA92F982F3D
:100110008827BC01CD01620F711D811D911D42E038
:10012000660F771F881F991F4A95D1F708951F9270
:100130000F920FB60F9211242F933F938F939F939B
:10014000AF93BF9380910B0190910C01A0910D0191
:10015000B0910E0130910A0123E0230F2D3758F59D
:100160000196A11DB11D20930A0180930B0190936C
:100170000C01A0930D01B0930E0180910F0190919D
:100180001001A0911101B09112010196A11DB11DA4
:1001900080930F0190931001A0931101B09312016D
:1001A000BF91AF919F918F913F912F910F900FBE73
:1001B0000F901F90189526E8230F0296A11DB11DE0
:1001C000D2CF789484B5826084BD84B5816084BDCB
:1001D00085B5826085BD85B5816085BD80916E00E5
:1001E000816080936E001092810080918100826016
:1001F0008093810080918100816080938100809153
:1002000080008160809380008091B1008460809341
:10021000B1008091B00081608093B00080917A003D
:10022000846080937A0080917A00826080937A0063
:1002300080917A00816080937A0080917A00806852
:1002400080937A001092C100809102019091030185
:100250009927FC01E057FF4F249184589F4FFC01E0
:100260008491882399F090E0880F991FFC01EE5843
:10027000FF4FA591B491FC01E859FF4F85919491EE
:100280008FB7F894EC91E22BEC938FBF809104012F
:10029000909105019927FC01E057FF4F2491845864
:1002A0009F4FFC0184918823C1F090E0880F991F33
:1002B000FC01EE58FF4FC591D491FC01E859FF4F66
:1002C000A591B4919FB7F8948881E22FE0958E2391
:1002D00088838C91E823EC939FBFC0E0D0E00E941C
:1002E00072004B015C0182E3C82ED12CE12CF12C71
:1002F0000E947200681979098A099B09683E734057
:1003000081059105A8F3F1E0CF1AD108E108F108C1
:1003100028EE820E23E0921EA11CB11CC114D10450
:10032000E104F10429F72097D1F20E940000D7CF11
:1003300082E090E09093010180930001E2E0F1E01F
:1003400083E090E09383828384E090E091838083D4
:100350000895EE0FFF1F0590F491E02D0994F89495
:02036000FFCFCD
:00000001FF
