:100000000C9458000C9480000C9480000C94800098
:100010000C9480000C9480000C9480000C94800060
:100020000C9480000C9480000C9480000C94800050
:100030000C9480000C9480000C9480000C94800040
:100040000C94B8040C9480000C9480000C948000F4
:100050000C9480000C9480000C9480000C94800020
:100060000C9499030C9480000000000025002800E7
:100070002B00040404040404040402020202020229
:10008000030303030303010204081020408001025C
:1000900004081020010204081020000000080002DB
:1000A000010000030407000000000000000002053A
:1000B00011241FBECFEFD8E0DEBFCDBF11E0A0E01E
:1000C000B1E0ECE3FCE002C005900D92AC32B10768
:1000D000D9F722E0ACE2B1E001C01D92AD30B20729
:1000E000E1F710E0C8E5D0E004C02197FE010E94CE
:1000F0001606C735D107C9F70E942E050C941C06B9
:100100000C94000090E0FC01E656FF4F2491FC01A6
:10011000EA57FF4F3491FC01EE58FF4FE491EE2374
:10012000C9F0222339F0233001F1A8F4213019F16C
:10013000223029F1F0E0EE0FFF1FE859FF4FA591A3
:10014000B4918FB7F894EC91611126C030953E239D
:100150003C938FBF08952730A9F02830C9F0243090
:1001600049F7809180008F7D03C0809180008F7758
:1001700080938000DFCF84B58F7784BDDBCF84B5DB
:100180008F7DFBCF8091B0008F778093B000D2CF6E
:100190008091B0008F7DF9CF3E2BDACF2091A30163
:1001A000260F3327331F21323105ECF42091C9018A
:1001B000FC0190E080E0243069F082E00895A09195
:1001C000A3012191AC014F575E4FA40FB52FB11D74
:1001D0002C930196861798F38091A301680F609382
:1001E000A30180E0089581E008951092C90181E0A3
:1001F0008093CB011092CA0161E082E10E948200EB
:1002000061E083E10E948200E9EBF0E080818E7F73
:10021000808380818D7F808388E48093B80085E42B
:100220008093BC000895CF93DF9391E09093800179
:100230008823B9F0C091B800D091BA008091BC0079
:100240008A7B8093BC0060E082E10E94820060E0D3
:1002500083E10E9482000E94F500D093BA00C0930F
:10026000B800DF91CF910895089508950895E09121
:10027000780180917701E81730F4F0E0E95AFE4FF9
:10028000808190E008958FEF9FEF0895909178011D
:10029000809177012FEF3FEF981748F4E92FF0E0B6
:1002A000E95AFE4F208130E09F5F90937801C901A9
:1002B00008958091770190917801891B990B089599
:1002C000CF92DF92EF92FF920F931F93CF93DF9322
:1002D0007C01CB018A0120915601222389F0EB0198
:1002E0006B01C40ED51ECC15DD0569F06991D701EF
:1002F000ED91FC910190F081E02DC7010995F3CFBC
:10030000642F0E94CE00C801DF91CF911F910F9101
:10031000FF90EF90DF90CF900895CF93DF931F92DF
:10032000CDB7DEB76983209156012223F9F02091E1
:100330007901203258F021E030E0FC013383228340
:1003400090E080E00F90DF91CF91089580917A0145
:10035000E82FF0E0EA5CFE4F998190838F5F8093F5
:100360007A018093790181E090E0ECCF61E0CE01E9
:1003700001960E94CE00F7CF3FB7F89480913101EB
:1003800090913201A0913301B091340126B5A89B20
:1003900005C02F3F19F00196A11DB11D3FBFBA2F17
:1003A000A92F982F8827BC01CD01620F711D811DD7
:1003B000911D42E0660F771F881F991F4A95D1F75C
:1003C0000895CF92DF92EF92FF920F931F93CF93F6
:1003D000DF93FC01C48121E020935601C0933501D5
:1003E00010927A01109279018385682B8FEE91E04B
:1003F0000E948D01D0917901D13208F092C00E9403
:10040000BC016B017C018091C901811165C082E052
:100410008093C90181E08093CB018FEF8093C80165
:100420001092ED01D093EC01A6E3B1E0ECECF1E029
:1004300080E0D81385C01092EE018091EE01CC0FC0
:10044000C82BC093EE018091CA01813009F07CC0B5
:100450001092CA010E94BC016B017C018091EE01E7
:100460008093BB0080917C0190917D01A0917E01E1
:10047000B0917F01892B8A2B8B2B99F00E94BC01B4
:1004800000917C0110917D0120917E0130917F01CE
:100490006C197D098E099F09061717072807390768
:1004A000E0F18091BC0083FDD9CF85EC8093BC0046
:1004B0000E94BC016B017C018091C901823009F46A
:1004C00045C08091C8018F3F61F18091C8018032A1
:1004D00041F18091C80125C080917C0190917D01FE
:1004E000A0917E01B0917F01892B8A2B8B2B09F47F
:1004F0008ACF0E94BC0100917C0110917D01209166
:100500007E0130917F016C197D098E099F090617C4
:1005100017072807390708F076CF80917B010E94E2
:10052000130110927A011092790110925601DF9115
:10053000CF911F910F91FF90EF90DF90CF90089592
:100540009D9191938F5F75CF85EEB0CF80917C01A7
:1005500090917D01A0917E01B0917F01892B8A2B22
:100560008B2B09F4A9CF0E94BC0100917C01109152
:100570007D0120917E0130917F016C197D098E09EA
:100580009F09061717072807390708F095CFC5CF29
:100590008F929F92AF92BF92CF92DF92EF92FF9293
:1005A0004B015C010E94BC016B017C010E94BC01FB
:1005B0006C197D098E099F09683E7340810591057C
:1005C000A8F321E0821A9108A108B10888EEC80EAC
:1005D00083E0D81EE11CF11C81149104A104B10434
:1005E00029F7FF90EF90DF90CF90BF90AF909F9052
:1005F0008F900895AF92BF92CF92DF92EF92FF92C9
:100600000F931F93CF93DF936C017B018B01040F3A
:10061000151FEB015E01AE18BF08C017D10759F0D6
:100620006991D601ED91FC910190F081E02DC60118
:100630000995892B79F7C501DF91CF911F910F9112
:10064000FF90EF90DF90CF90BF90AF900895089506
:1006500090E080E0089585ED8093BC0080917C015E
:1006600090917D01A0917E01B0917F010796A11D1F
:10067000B11D23E0B695A795979587952A95D1F753
:100680002091BC0024FD03C01092C901089540913F
:100690007C0150917D0160917E0170917F01452B1D
:1006A000462B472B69F30097A105B10541F025E3DF
:1006B0002A95F1F700000197A109B109E1CF8091D6
:1006C0007B010C9413010F931F93CF938C01C62FC2
:1006D0000E94E1016C2F6460C8010E94E1016C2F4F
:1006E0006B7FC8010E94E10183EC90E00197F1F774
:1006F000CF911F910F9108950F931F93CF93DF9385
:100700008C01D62FC42F607F642B0E94630380E18D
:10071000D89FB00111246C2BC801DF91CF911F919C
:100720000F910C94630341E00E947C0381E090E010
:1007300008951F920F920FB60F9211242F933F939B
:100740004F935F936F937F938F939F93AF93BF93D9
:10075000EF93FF938091B900887F803609F44AC0F7
:10076000F0F5883209F4A7C018F5803109F49BC070
:10077000B8F4882309F4F9C0883009F494C0FF91D3
:10078000EF91BF91AF919F918F917F916F915F9109
:100790004F913F912F910F900FBE0F901F90189582
:1007A000883109F488C0803251F78093C80114C0A1
:1007B000803409F49DC040F48033B9F38833F9F6EE
:1007C0008093C80185ECB0C0803509F485C08835B8
:1007D00009F496C0883499F60E942B03D0CF88394B
:1007E00009F48CC038F5883729F050F4883611F0B8
:1007F000803729F683E08093C9011092C70157C062
:10080000883809F47BC0803919F0803809F0B7CFF7
:100810008091C701803208F071C0E091C70181E08A
:100820008E0F8093C7018091BB00F0E0E955FE4F29
:1008300080833DC0803B39F0E0F4803A09F479C010
:10084000883A09F09CCF84E08093C9011092A401FA
:100850001092A301E091A101F091A201099580916C
:10086000A30181110FC081E08093A3011092810147
:1008700009C0803C09F4A6CF883C09F4A3CF883B8B
:1008800009F07DCFE091A40181E08E0F8093A40157
:10089000F0E0EF57FE4F80818093BB009091A40160
:1008A0008091A30129C08091EE018093BB0085EC6B
:1008B0008093BC0064CF9091ED018091EC0198177A
:1008C00058F5E091ED0181E08E0F8093ED01F0E0AD
:1008D000E453FE4F8081E9CFE091ED0181E08E0F7E
:1008E0008093ED018091BB00F0E0E453FE4F8083E4
:1008F0009091ED018091EC019817C8F285E8D8CF6E
:10090000E091ED0181E08E0F8093ED018091BB00BD
:10091000F0E0E453FE4F80838091CB0181115CCFE6
:1009200081E08093CA0184EA8093BC001092C901DF
:1009300026CF85EC8093BC001092C9018091C7013D
:10094000803230F4E091C701F0E0E955FE4F1082AB
:100950006091C70170E0E091A501F091A60187EADE
:1009600091E009951092C7010ACF1092C80134CFC7
:100970001F920F920FB60F9211242F933F938F93D4
:100980009F93AF93BF9380912D0190912E01A091E1
:100990002F01B091300130912C0123E0230F2D372E
:1009A00058F50196A11DB11D20932C0180932D01B6
:1009B00090932E01A0932F01B093300180913101CB
:1009C00090913201A0913301B09134010196A11DA3
:1009D000B11D8093310190933201A0933301B09304
:1009E0003401BF91AF919F918F913F912F910F90C3
:1009F0000FBE0F901F90189526E8230F0296A11D99
:100A0000B11DD2CFEFEEF1E01382128288EE93E0B7
:100A1000A0E0B0E084839583A683B78384E091E06F
:100A200091838083EBEFF1E01382128286E191E003
:100A3000918380838FE3848380E1818782E0828752
:100A400013868FE390E09587848780E190E0978715
:100A5000868782E090E0918B808B0895789484B5AE
:100A6000826084BD84B5816084BD85B5826085BDAA
:100A700085B5816085BD80916E00816080936E0038
:100A8000109281008091810082608093810080912A
:100A900081008160809381008091800081608093DB
:100AA00080008091B10084608093B1008091B0009B
:100AB00081608093B00080917A00846080937A0096
:100AC00080917A00826080937A0080917A008160C0
:100AD00080937A0080917A00806880937A001092E7
:100AE000C100109278011092770110927A01109251
:100AF00079010E94F50084E391E09093A201809334
:100B0000A10185E391E09093A6018093A501109245
:100B1000000280910502823018F098E09093000264
:100B20008093030262E370E080E090E00E94C802DC
:100B3000609106028BEF91E00E94E10168EE73E0A4
:100B400080E090E00E94C80260E38BEF91E00E9499
:100B50006303CBE4D6E4CE010197F1F760E38BEFBA
:100B600091E00E9463032197F1F760E38BEF91E03E
:100B70000E94630383E592E00197F1F760E28BEF57
:100B800091E00E94630360910002606240E08BEF9D
:100B900091E00E947C0384E08093010240E06CE0DD
:100BA0008BEF91E00E947C0340E061E08BEF91E0ED
:100BB0000E947C03CBE3DFE1CE010197F1F782E0F5
:100BC0008093020240E066E08BEF91E00E947C039C
:100BD00040E062E08BEF91E00E947C03CE01019740
:100BE000F1F740E061E08BEF91E00E947C032197F8
:100BF000F1F788E08093060260E08BEF91E00E94BD
:100C0000E101C0E0D0E040E060E88BEF91E00E94BD
:100C10007C034DE050E06EE171E08BEF91E00E94CB
:100C2000FA02209781F30E940000EDCFEE0FFF1F24
:0C0C30000590F491E02D0994F894FFCF9A
:100C3C00000000008D0160012803360159014601B6
:100C4C003701000000009303FA02280327036865AC
:0C0C5C006C6C6F2C20776F726C642100B0
:00000001FF
