:100000000C9468000C9490000C9490000C94900058
:100010000C9490000C9490000C9490000C94900020
:100020000C9490000C9490000C9490000C94900010
:100030000C9490000C9490000C9490000C94900000
:100040000C9439020C9490000C9490000C94900045
:100050000C9490000C9490000C9490000C949000E0
:100060000C9490000C9490000000000023002600E7
:10007000290000000000250028002B0000000000DF
:10008000240027002A0004040404040404040202D7
:100090000202020203030303030301020408102007
:1000A0004080010204081020010204081020005EB4
:1000B000BCE2613FDD83C29C7E20A3FD1F41009D09
:1000C00023BE46DB65F88C11AF32CA57E974FC03D6
:1000D00011241FBECFEFD8E0DEBFCDBF11E0A0E0FE
:1000E000B1E0E4ECF8E002C005900D92A030B10759
:1000F000D9F721E0A0E0B1E001C01D92A133B20721
:10010000E1F710E0C8E6D0E004C02197FE010E94AC
:100110005A04C736D107C9F70E9483020C946004C1
:100120000C940000DC0180E0615090F09D919827D4
:10013000E92FEF70F0E0E255FF4F2491E92FE295AF
:10014000EF70F0E0E254FF4FE491822F8E27ECCF66
:100150000895DC012C911196ED91FC91F894818128
:10016000822B81839281322F30959323928387E073
:1001700090E00197F1F781818323818383E290E00E
:100180000197F1F790817894EFECF0E03197F1F777
:10019000922381E009F480E00895FC0190810180C0
:1001A000F281E02D292F209560FF14C0F894828100
:1001B000822382838181892B8183A3E2B0E011971E
:1001C000F1F78281982B9283789487ED90E00197E4
:1001D000F1F70895F8948281822382838181892BAB
:1001E0008183AFEFB0E01197F1F78281982B928372
:1001F00078948FE090E0EBCFEF92FF920F931F93F4
:10020000CF93DF93EC01E62E08E010E0FF24F39497
:1002100061E08E2D8F2109F460E0CE010E94CD00B7
:10022000FF0C01501109A1F7F894E981FA8191813D
:100230008881809589238183E981FA8192818881EF
:100240008095892382837894DF91CF911F910F91BC
:10025000FF90EF900895EF92FF920F931F93CF932B
:10026000DF938C017B0165E50E94FC00E70188E0DB
:10027000E80EF11C6991C8010E94FC00CE15DF0553
:10028000C9F7DF91CF911F910F91FF90EF900895E3
:10029000FC0190810180F281E02DF8948181292F69
:1002A00020958223818378943DE743E050E03150EC
:1002B00029F1DA011197F1F780818923C1F3F894CC
:1002C0008281822382838181892B81837894ABE729
:1002D000B7E01197F1F7F894818182238183A3E13C
:1002E000B1E01197F1F78081982381E009F080E077
:1002F0007894E3E6F6E03197F1F7089580E0089509
:100300006F927F928F929F92AF92BF92CF92DF9225
:10031000EF92FF920F931F93CF93DF93CDB7DEB78A
:1003200029970FB6F894DEBF0FBECDBF8C01809128
:100330002301909124010E944801811102C080E0B4
:1003400050C0B80180912301909124010E942B019B
:100350006EEB80912301909124010E94FC008E019C
:100360000F5F1F4F5E018AE0A80EB11C380180901C
:1003700023019090240188E0C82ED12CF12CEE248A
:10038000E394C4010E94A9008111FE28EE0CE1E073
:10039000CE1AD108B1F7F801F1928F01AE16BF065F
:1003A00031F780912301909124010E94480181300E
:1003B00031F668E0C3010E94920099858913BFCF8E
:1003C0008D818F3319F128F48F3109F0B8CF89E08E
:1003D00008C08F3529F08F3709F0B1CF8CE001C00C
:1003E0008BE029960FB6F894DEBF0FBECDBFDF912C
:1003F000CF911F910F91FF90EF90DF90CF90BF9022
:10040000AF909F908F907F906F9008958AE0E9CF92
:10041000CF93DF9390E0FC01E656FF4F24918A577B
:100420009F4FFC0184918823D1F090E0880F991FA1
:10043000FC01E458FF4FA591B491FC01EE58FF4F29
:10044000C591D49161110EC09FB7F8948C91E22FA1
:10045000E0958E238C932881E223E8839FBFDF9170
:10046000CF9108958FB7F894EC91E22BEC938FBF66
:10047000F6CF1F920F920FB60F9211242F933F9336
:100480008F939F93AF93BF938091190190911A011D
:10049000A0911B01B0911C013091180123E0230FA2
:1004A0002D3758F50196A11DB11D20931801809399
:1004B000190190931A01A0931B01B0931C01809124
:1004C000140190911501A0911601B09117010196A8
:1004D000A11DB11D8093140190931501A0931601E5
:1004E000B0931701BF91AF919F918F913F912F9141
:1004F0000F900FBE0F901F90189526E8230F0296BD
:10050000A11DB11DD2CFCF93DF93CDB7DEB7289712
:100510000FB6F894DEBF0FBECDBF789484B582606D
:1005200084BD84B5816084BD85B5826085BD85B597
:10053000816085BD80916E00816080936E00109215
:100540008100809181008260809381008091810090
:100550008160809381008091800081608093800021
:100560008091B10084608093B1008091B00081607F
:100570008093B00080917A00846080937A008091AB
:100580007A00826080937A0080917A008160809303
:100590007A0080917A00806880937A001092C1007E
:1005A000E0912301F09124011386158614861286AA
:1005B0001186108617821682158214821382109279
:1005C000210110922201BB24B394AA24A394009188
:1005D000230110912401D8011D968C91882339F1B3
:1005E000F80113861586148661E0809108010E9447
:1005F000080261E080910A010E94080261E0809196
:100600000C010E94080200E010E001151105E9F359
:1006100010920F0110920E01109211011092100110
:1006200010921301109212010E940000EECFC80137
:100630000E94480181110AC0D8011B961C921B9789
:100640001D961C921D971C961C92CECF60EFC80180
:100650000E94FC00EE24E394C12C912CFF24F3941F
:10066000C8010E94A900D82EC8010E94A900B1E0CB
:10067000DB1275C0813009F094C0E0E4EF1508F09A
:10068000AFCFD8011B969C921B97911002C01D966C
:10069000BC92F8018381882309F4A2CFD801139674
:1006A000FE013196055F1F4F7F018D9181930A17DF
:1006B0001B07D9F767E0C7010E949200988589134C
:1006C00086CF80911D01811125C0809123019091D9
:1006D00024010E944801B7018091230190912401D7
:1006E0000E942B0164EB80912301909124010E94D0
:1006F000FC0080912301909124010E94A900182FF1
:1007000080912301909124010E944801111102C09F
:10071000A0921D0110911E018981803109F468C0E9
:10072000C7010E948001811708F052C080911E010C
:1007300080931E01809121018F5F80932101898127
:10074000883239F008F04DC0803119F0823209F05A
:100750003ECF809122018F5F8093220138CFEC2D14
:10076000F0E0D81214C0D8011B968C911B97F81694
:10077000B0F4AE0FBF1F13968C918E2191F4D12C43
:10078000B8E0BF1518F0D8011C96FC929F2CE00F22
:10079000F11F83819E2D9095892383830AC08F1139
:1007A000EECFF801EC0DF11D83818E298383DD24CA
:1007B000D3946D2DC8010E94CD00F394EE0C19F472
:1007C000C394EE24E394B7E0BC1508F049CF55CFAD
:1007D0008981803111F48CE0ABCFC7010E94800188
:1007E000A7CF8B3309F4B5CF823409F0F0CEB1CF67
:1007F0001D3008F09BCFEFCF0F931F93CF93DF9364
:10080000CDB7DEB72E970FB6F894DEBF0FBECDBFC3
:10081000E0E0F1E083E190E0918380831382128233
:10082000158214828FEF90E097838683E8E0F1E0F1
:1008300029E030E0318320832AE030E033832283D3
:100840002BE030E0358324839783868391878087EC
:10085000938782870DE111E0F801138A128A60E024
:1008600083E00E940802EDE9F0E0E491E9E8F0E0BD
:10087000E491F0E0EE0FFF1FE859FF4F859194914E
:10088000F801108289E0818381E08283838314826E
:100890001582CE01019697838683138A128A2E963B
:1008A0000FB6F894DEBF0FBECDBFDF91CF911F9181
:1008B0000F910895EE0FFF1F0590F491E02D09941C
:0408C000F894FFCFDA
:00000001FF
